{
  "contractName": "FileValidator",
  "abi": [
    {
      "inputs": [
        {
          "internalType": "bytes32",
          "name": "_hash",
          "type": "bytes32"
        }
      ],
      "stateMutability": "nonpayable",
      "type": "constructor"
    },
    {
      "inputs": [
        {
          "internalType": "bytes32",
          "name": "hashToVerify",
          "type": "bytes32"
        }
      ],
      "name": "verify",
      "outputs": [
        {
          "internalType": "bool",
          "name": "",
          "type": "bool"
        }
      ],
      "stateMutability": "view",
      "type": "function",
      "constant": true
    },
    {
      "inputs": [],
      "name": "info",
      "outputs": [
        {
          "internalType": "address",
          "name": "",
          "type": "address"
        },
        {
          "internalType": "uint256",
          "name": "",
          "type": "uint256"
        }
      ],
      "stateMutability": "view",
      "type": "function",
      "constant": true
    }
  ],
  "bytecode": "0x608060405234801561001057600080fd5b506040516101e93803806101e98339818101604052602081101561003357600080fd5b81019080805190602001909291905050508060008190555033600160006101000a81548173ffffffffffffffffffffffffffffffffffffffff021916908373ffffffffffffffffffffffffffffffffffffffff1602179055504260028190555050610146806100a36000396000f3fe608060405234801561001057600080fd5b50600436106100365760003560e01c8063370158ea1461003b57806375e366161461008c575b600080fd5b6100436100d2565b604051808373ffffffffffffffffffffffffffffffffffffffff1673ffffffffffffffffffffffffffffffffffffffff1681526020018281526020019250505060405180910390f35b6100b8600480360360208110156100a257600080fd5b8101908080359060200190929190505050610103565b604051808215151515815260200191505060405180910390f35b600080600160009054906101000a900473ffffffffffffffffffffffffffffffffffffffff16600254915091509091565b600080548214905091905056fea2646970667358221220b6918b3184225298a5bb4ceea312258590785a687f0e75d302f5be3b5f2ca21164736f6c63430006000033",
  "source": "//\"SPDX-License-Identifier: UNLICENSED\npragma solidity >=0.5.17;\n\ncontract FileValidator {\n    bytes32 fileHash;\n    address owner;\n    uint256 createdAt;\n    constructor(bytes32 _hash) public {\n        fileHash = _hash;\n        owner = msg.sender;\n        createdAt = block.timestamp;\n    }\n    function verify(bytes32 hashToVerify)external view returns(bool) {\n        return (hashToVerify==fileHash);\n    }\n    function info() external view returns(address,uint256){\n        return (owner,createdAt);\n    }\n}",
  "sourcePath": "/media/marko/Lin-sec_drive/Suprabit/SHA3-Validator/src/contracts/FileValidator.sol",
  "compiler": {
    "name": "solc",
    "version": "0.6.0+commit.26b70077.Emscripten.clang"
  },
  "schemaVersion": "3.2.0",
  "updatedAt": "2020-05-25T21:40:57.543Z",
  "networkType": "ethereum",
  "devdoc": {
    "methods": {}
  },
  "userdoc": {
    "methods": {}
  }
}